:020000040000FA
:0600000001EF0EF01200FA
:0608000001EF0EF01200F2
:0608080084EF0DF0120068
:020818001200CC
:06082A000100381C000073
:08083000C700000002000000F7
:08083800F00E8C169516938852
:10084000938A8150100B01E0010E0001606F81500E
:10085000200B01E0010E616F120084D9060E000129
:10086000C15D03E36D50020B01E001D001D812001D
:10087000D9CFE6FFE1CFD9FF0A0EE126400EE66EA2
:10088000630EE66E000EE66E99EC0CF0E552E55252
:10089000E552000901E15CD10001626B6351060A77
:1008A00001E133D1500A01E1D6D05D0A01E191D0D6
:1008B000090A01E179D0570A5CE0510A45E0070ACC
:1008C0002EE00E0A17E00D0A01E032D1E66AEEECE6
:1008D00009F0E552E76E010EE7CFDBFFDBCF65F0F5
:1008E0008150200B200A01E0010E0001666F040E0A
:1008F000626F1ED1010EE66E0D0EE66E3FEC0AF041
:10090000E552E552020EF3CFDBFF030EF4CFDBFF1F
:10091000020EDBCF65F00001030E626F09D1030EFA
:10092000E66EEEEC09F0E552E76E040EE7CFDBFF72
:10093000DBCF65F08150200B200A01E0010E0001A1
:10094000666F040E626FF4D0040EE66EEEEC09F0F2
:10095000E552E76E050EE7CFDBFFDBCF65F0815098
:10096000200B200A01E0010E0001666F040E626F89
:10097000DFD0030EE66EEEEC09F0E552E76E040EF2
:10098000E7CFDBFFE66EEEEC09F0E552E76E050E11
:10099000E7CFDBFF040EDBCF65F0050EDBCF66F0A3
:1009A0000001040E626FC4D0020EE66EEEEC09F098
:1009B000E552E76E060EE7CFDBFFDBCF65F0815037
:1009C000200B200A01E0010E0001666F040E626F29
:1009D000AFD0020EF36E080EF3CFDBFF090EDB6A19
:1009E000080EDBCF10F0090EDBCF11F0D8901150BC
:1009F00004E62F0E105C000E11582AE20B0EE66E74
:100A0000EEEC09F0E552E76E070EE7CFDBFFDB50B7
:100A1000800B80080AE00B0EE66EEEEC09F0E55262
:100A2000E76E070EE7CFDBFFF2D7080EDBCFE9FF5B
:100A3000090EDBCFEAFF630EE926000EEA22070E5D
:100A4000DBCFEFFF080EDB2A090E01E3DB2AC8D754
:100A500000012F0E626F030EE66EEEEC09F0E55218
:100A6000E76E040EE7CFDBFFE66EEEEC09F0E55231
:100A7000E76E050EE7CFDBFF040EDBCF65F0050E5A
:100A8000DBCF66F0040EF36E080EF3CFDBFF090E2A
:100A9000DB6A080EDBCF10F0090EDBCF11F0D89027
:100AA000115004E6310E105C000E11582AE20B0EB4
:100AB000E66EEEEC09F0E552E76E070EE7CFDBFFDE
:100AC000DB50800B80080AE00B0EE66EEEEC09F0BE
:100AD000E552E76E070EE7CFDBFFF2D7080EDBCF5C
:100AE000E9FF090EDBCFEAFF630EE926000EEA22DA
:100AF000070EDBCFEFFF080EDB2A090E01E3DB2A2E
:100B0000C8D70001310E626F13D0010EE66E0B0ED6
:100B1000E66E3FEC0AF0E552E552070EF3CFDBFF3D
:100B2000DBCF65F0DBCF66F00001040E626F00D012
:100B300062510EE004010CBF0BD062C0E6FF630EF1
:100B4000E66E000EE66E5FEC0CF0E552E552E55203
:100B50000A0EE15C02E2E16AE552E16EE552E7CF9E
:100B6000D9FF12000001C751C81104E1100EC76F70
:100B7000270EC86FC707000EC85B6DA20BD0C75108
:100B8000C81107E18C708C50010B02E08C8201D0FF
:100B90008C9230D00001C15104E18C908C925ED8CF
:100BA00029D0C10503E18C808C8224D0020EC15D66
:100BB00003E18C808C921ED0030EC15D03E18C900A
:100BC0008C8218D0050EC15D07E10001C751C81124
:100BD00002E18C708C920ED0060EC15D0BE100011B
:100BE000C751C81107E18C708C50010B02E08C9248
:100BF00001D08C8212008150100B01E0010E000127
:100C0000605D09E08150100B01E0010E606F81B85A
:100C100002D0010E02D0000E00D012008150200B35
:100C200001E0010E0001615D09E08150200B01E04F
:100C3000010E616F81BA02D0010E02D0000E00D009
:100C40001200D9CFE6FFE1CFD9FFACA2FED7FE0E4E
:100C5000DB50AD6EE552E7CFD9FF1200D9CFE6FFEA
:100C6000E1CFD9FFE652C7DF000901E1D3D08C8084
:100C7000C2DF000901E1FCD78C908C82CFDF000934
:100C800001E1FCD78C928C84C9DF000901E1FCD71B
:100C90008C948C86C3DF000901E1FCD78C96C66A70
:100CA000948E949C710EAF6E020EB06E240EAC6EDC
:100CB000900EAB6E080EB86EAE50DF6EAE50DF6EAB
:100CC000ADDF000901E1FCD7520EE66EBADFE55256
:100CD000530EE66EB6DFE5522D0EE66EB2DFE5523C
:100CE000320EE66EAEDFE552330EE66EAADFE55257
:100CF000320EE66EA6DFE552200EE66EA2DFE5526A
:100D0000540EE66E9EDFE552580EE66E9ADFE5520F
:100D1000200EE66E96DFE552540EE66E92DFE55247
:100D2000650EE66E8EDFE552730EE66E8ADFE552E3
:100D3000740EE66E86DFE552200EE66E82DFE55227
:100D40004F0EE66E7EDFE5524B0EE66E7ADFE55221
:100D50002C0EE66E76DFE552200EE66E72DFE5526F
:100D6000500EE66E6EDFE552720EE66E6ADFE552F9
:100D7000650EE66E66DFE552730EE66E62DFE552E3
:100D8000730EE66E5EDFE552200EE66E5ADFE55228
:100D9000220EE66E56DFE552720EE66E52DFE55227
:100DA000220EE66E4EDFE5522C0EE66E4ADFE5526D
:100DB0009EAAFED7720EAE5C2CE1200EE66E41DFDD
:100DC000E552520EE66E3DDFE552580EE66E39DF13
:100DD000E552200EE66E35DFE552540EE66E31DF49
:100DE000E552650EE66E2DDFE552730EE66E29DFE5
:100DF000E552740EE66E25DFE552200EE66E21DF29
:100E0000E5524F0EE66E1DDFE5524B0EE66E19DF22
:0E0E1000E55212DDE552E552E7CFD9FF1200A0
:020E1E000401CD
:100E20001851600BE842E842E842E842E842000913
:100E300001E055D01951070A51E00B0A4FE0070AAB
:100E400040E0010A2CE00B0A28E0020A26E0030A2F
:100E500022E0080A12E0010A0EE00F0A0AE0030A83
:100E600001E03CD00001010EBA6F0001040EC16F19
:100E700036D036D834D090D832D00001010EBA6FB7
:100E80000001C30EBB6F000EBC6F0001C2930001D6
:100E9000010EBF6F24D0A8D822D0F6D820D00001F0
:100EA000010EBA6F04011C510001BB6FBC6BC40E74
:100EB000BB27000EBC230001C2930001010EBF6FCF
:100EC0000ED00001010EBA6F04011C51EA6AC40F72
:100ED000E96E000EEA221AC4EFFF01D000D0120022
:100EE000800E0401185D57E11B51030A34E0010A2A
:100EF00010E0030A01E04DD00001010EBA6F0001BD
:100F0000B20EBB6F190EBC6F120E0001BF6FC06B2B
:100F100040D00001010EBA6F04011A51F66EF76A53
:100F2000D890F636F736600EF6261A0EF72209002C
:100F3000F5CFBBF00A00F5CFBCF0020E0001F76A56
:100F4000BB25F66EBC51F7220900F5CFBFF00A00B1
:100F5000F5CFC0F01ED00001010EBA6F04011A5186
:100F6000F66EF76AD890F636F736640EF6261A0E45
:100F7000F7220900F5CFBBF00A00F5CFBCF0BBC0EB
:100F8000F6FFBCC0F7FF0800F5500001BF6FC06B53
:100F900000D00001C28312000001010EBA6F0F0ED3
:100FA000E66E710EE66E0F0EE66E35EC0CF0E55255
:100FB000E552E552010EE66EC40EE66E000EE66ED8
:100FC00035EC0CF0E552E552E5521AC4C3F00401C9
:100FD0001A5104E10001050EC16F05D00001060E93
:100FE000C16F4AEC0CF012000401206B216B04016C
:100FF00018511F0B020A16E0030A10E0010A01E073
:1010000035D00001010EBA6F80A402D00401208106
:101010000001C2A102D00401208328D00001010EEA
:10102000BA6F24D00001010EBA6F04011C510F0BDE
:10103000080DF350116A000F106E040E11221C519E
:10104000800B01E0010E040DF35000011024BD6F70
:10105000000E1120BE6FBDC0E9FFBEC0EAFFEF5019
:10106000040B03E00401010E206F00D00001BA055B
:101070000AE10001200EBB6F040EBC6F0001C29399
:101080000001020EBF6F120004011A0510E1185191
:101090001F0B00090CE10001010EBA6F030E0401E1
:1010A000195D03E10001C28102D00001C291040177
:1010B0001A513AE118511F0B020836E11C510F0B6F
:1010C000000932E00001010EBA6F04011C510F0B40
:1010D000080DF350116A000F106E040E11221C51FE
:1010E000800B01E0010E040DF35000011024BD6FD0
:1010F000000E1120BE6F030E0401195D07E1840E7E
:10110000BDC0E9FFBEC0EAFFEF6E0ED01CAF06D037
:10111000BDC0E9FFBEC0EAFFEF6A06D0880EBDC0C1
:0A112000E9FFBEC0EAFFEF6E120007
:06112A006C5002E0000E13
:1011300001D0010E00090BE0040100513C0BE84214
:10114000E8420D0802E10CD801D01CD808D06C5040
:1011500002E0000E01D0010E040901E023D81200C4
:10116000D9CFE6FFE1CFD9FFE6520001B96BBA6BE8
:10117000BF6BC06B0FEC07F0DDD8E552E552E7CF4F
:10118000D9FF1200020E0001B95D0AE196D80401F0
:1011900000BD03D0C80E006F02D0880E006F01D0D2
:1011A0000FD91200040E0001C15D0AE11AC46EFFDE
:1011B0006E50000803E2050EC16F02D0030EC16F2E
:1011C0000001B9050AE10BD8040104BD03D0C80E23
:1011D000046F02D0880E046F01D0F2D81200D9CF6C
:1011E000E6FFE1CFD9FF020EE1260001080EBF5D48
:1011F000000EC05905E2BFC0DEFFC0C0DDFF03D056
:10120000080EDE6EDD6A040104930491010EDB50CA
:101210000413DFCF05F4000EDB500001BF5F010EA9
:10122000DB50C05B200EBD6F040EBE6F0001C2A379
:101230001ED0D9CFE9FFDACFEAFFEE50ED1016E06D
:10124000BBC0F6FFBCC0F7FF0800F550BDC0E9FF0A
:10125000BEC0EAFFEF6E0001BD2B000EBE23BB2B0C
:10126000BC23DF06010E01E2DB06E3D71CD0D9CF99
:10127000E9FFDACFEAFFEE50ED1015E0BBC0E9FF61
:10128000BCC0EAFFEF50BDC0E9FFBEC0EAFFEF6E91
:101290000001BD2B000EBE23BB2BBC23DF06010EBD
:1012A00001E2DB06E4D7020EE15C02E2E16AE5520C
:1012B000E16EE552E7CFD9FF1200D9CFE6FFE1CFCB
:1012C000D9FF020EE126030E04010015E76E010EA0
:1012D000E7CFDBFF01C4DFFFDE500001BF27DD5099
:1012E000C023200EBB6F040EBC6FD9CFE9FFDACF4D
:1012F000EAFFEE50ED1014E0BBC0E9FFBCC0EAFF0E
:10130000EF50BDC0E9FFBEC0EAFFEF6EBD2B000E7F
:10131000BE23BB2BBC23DF06010E01E2DB06E5D7B3
:10132000020EE15C02E2E16AE552E16EE552E7CFCE
:10133000D9FF12000001BA510CE10401080E016F3F
:10134000180E026F040E036F840E006F0401046F09
:1013500035D0040118AF22D00001BF5104011E5D39
:101360000001C05104011F5904E21EC4BFF01FC494
:10137000C0F035DF0001010EB96F0401080E016FE6
:10138000180E026F040E036F800E006F0401200E12
:10139000066F040E076FC80E046F10D00001020E16
:1013A000B96F0401056BC80E046F0401080E016FCC
:1013B000200E026F040E036FC80E006F6D981200AE
:1013C0000001B96B0401080E016F180E026F040EC4
:0C13D000036F880E006F0401046B120014
:0413DC00D9CFE6FF80
:1013E000E1CFD9FF020EE1269494939C939E8294C0
:1013F000010EDB6A070EDF6EDFCF10F0103415E24E
:10140000819C0000FE0EDB50DF5206E0DFCFF3FFD1
:10141000E8327F0BF306FCE1010BE8B0818EE8A017
:10142000819E818C0000DF06E7D7938E070EDF6E6A
:10143000DFCF10F0103413E2819C00008150800B4C
:1014400001E0010E106E010EDB50E8241010E76E73
:10145000010EE7CFDBFF818C0000DF06E9D7828435
:10146000010EDB5000D0106E020EE15C02E2E16A78
:10147000E552E16E1050E552E7CFD9FF1200D9CF07
:10148000E6FFE1CFD9FF050EE1269494939C939E4D
:101490008294010EDB6A030EDB6A040EDB6AFE0E29
:1014A000DB50E76E020EE7CFDBFF020EDB50800958
:1014B000E76E020EE7CFDBFF070EDF6EDFCF10F027
:1014C000103415E2819C0000020EDB50DF5206E072
:1014D000DFCFF3FFE8327F0BF306FCE1010BE8B04E
:1014E000818EE8A0819E818C0000DF06E7D7070E81
:1014F000DF6EDFCF10F0103415E2819C0000FD0E8E
:10150000DB50DF5206E0DFCFF3FFE8327F0BF3065C
:10151000FCE1010BE8B0818EE8A0819E818C000087
:10152000DF06E7D7FE0EDBCFE6FF58DFE552E76EBA
:10153000010EE7CFDBFFFD0EDB50F36E010EDB503B
:10154000F35C07E1010EF36E030EF3CFDBFF040E35
:10155000DB6A8284030EDBCF10F0040EDBCF11F0C8
:1015600010C0F3FF11C0F4FF00D0050EE15C02E2F1
:0E157000E16AE552E16EE552E7CFD9FF1200C5
:02157E008A845D
:101580009394E66A030EE66E020EE66EB9EC0DF079
:10159000E552E552E5520001870EA36F0C0EA46FD1
:1015A000E3EF0AF08A9416EC0EF00001A46F16EC3B
:1015B0000EF00001A36F8A84A3B502D0000E02D002
:1015C000010E00D01200D9CFE6FFE1CFD9FF030E04
:1015D000E126A3C010F0A4C011F0D890113210324F
:1015E000E804FBE110C0DEFF11C0DDFFD950010FA0
:1015F000E96EDACFEAFFEF50100B08E1010EDB9A3B
:10160000DB9CDB9E00012B0EA56F16D0010EDB8A42
:10161000DB8CDB8E00012D0EA56FDECF10F0DDCF51
:1016200011F0FF0E101A111A10C0DEFF11C0DDFFFD
:10163000DF2A010E01E3DB2ADECF10F0DDCF11F04F
:101640000A0E1102F3CF11F01002F3CF10F0F45094
:101650001126040ED89011321032E804FBE110C0BC
:10166000DEFF11C0DDFF040EF36E020EF3CFDBFFD1
:10167000DB50000833E2DECF10F0DDCF11F00A0EB0
:101680000B6E0C6A10C006F011C007F0EBEC0DF009
:1016900002C010F003C011F00F0E10143009E66EF6
:1016A000020EDB50EA6AA50FE96E000EEA22E5524F
:1016B000E750EF6ED9CFE9FFDACFEAFF0A0E0B6EE3
:1016C0000C6AEECF06F0EDCF07F0EBEC0DF006C0A4
:1016D000EEFF07C0EDFF020EDB06CAD7300E000199
:1016E000A65D07E1200EA66F300EA75D02E1200E79
:1016F000A76FA9C0AAF02E0EA96FF80EAB6F430E0C
:10170000AC6F0D0EAD6FAE6B030EE15C02E2E16AF1
:0C171000E552E16EE552E7CFD9FF120070
:04171C0080A203D0D4
:101720006DA60FD802D06DB613D80001C10508E12F
:101730006DBA06D0686A696A69806988020EC16FED
:1017400012006D6A696A6D860001010EC16F120098
:101750006D6A696A0001C16B1200A8EF0BF000010D
:10176000C15101E13AD06850040B04E06950040B08
:1017700001E038D86DB231D06850010B04E06950F7
:10178000010B01E050D86850100B04E06950100BB9
:1017900001E024D86850400B04E06950400B01E0A0
:1017A00037D86850200B04E06950200B01E032D894
:1017B0006850020B04E06950020B01E032D8030EBE
:1017C0000001C15D01E209D06850080B06E06950D4
:1017D000080B03E095EC08F068961200698468989D
:1017E0006D8212006D926994689412000001C2A18A
:1017F0000ED0F8DF6D840001080EC56F070EC66FAE
:10180000C507000EC65BC551C611FAE16D94120002
:10181000689C120070A003D0E0EC09F07090689A08
:101820001200689212006A6A686A9F0E6B6E7B0EE5
:10183000696E6E6A0F0EE66E710EE66E0F0EE66E44
:1018400014D8E552E552E552160E706E68A602D025
:101850006896FCD76D98E0EC09F00001C291000198
:10186000C36B0001030EC16F1200D9CFE6FFE1CFB9
:10187000D9FFFD0EDBCFE9FFFE0EDBCFEAFFFC0E4A
:10188000DB5004E0EE6AFC0EDB06F9D7E552E7CF49
:04189000D9FF12006A
:0C1894000001C96B1E0E716E0401400EB5
:1018A000096F280E0A6F040E0B6F880E086F040173
:1018B000680E0E6F040E0F6F400E0C6F1200D9CF22
:1018C000E6FFE1CFD9FFE652FC0EDB50400805E20F
:1018D000400EF36EFC0EF3CFDBFFDF6AFC0EDB5035
:1018E000DF5C19E2DF50E76EFD0EDBCFE9FFFE0E95
:1018F000DBCFEAFFE750E926000EEA22EF50E66E62
:10190000DF50EA6A680FE96E040EEA22E552E750FA
:10191000EF6EDF2AE3D7FC0EDBCF0DF4400E04019F
:101920000C170C7D880E0C13E552E552E7CFD9FF5A
:101930001200D9CFE6FFE1CFD9FF0001C96B040146
:1019400008BF30D0FC0EDBCF10F00951D880105406
:1019500003E2FC0E09C4DBFF0001C96BFC0EDB5087
:10196000C95D19E2C951EA6A280FE96E040EEA223C
:10197000EF50E66EC951E76EFD0EDBCFE9FFFE0EBC
:10198000DBCFEAFFE750E926000EEA22E552E750F6
:10199000EF6EC92BE3D70401400E096F0817087DCD
:1019A000880E08130001C95100D0E552E7CFD9FFD6
:0219B000120023
:0E19B2001201000200000008D8040C00000022
:1019C0000102000109022000010100803209040027
:1019D0000002000000000705010340002007058108
:1019E000034000200403090434034D006900630030
:1019F00072006F00630068006900700020005400EE
:101A00006500630068006E006F006C006F00670087
:101A10007900200049006E0063002E00440350004E
:101A200049004300440045004D002000460053009B
:101A300020005500530042002000440065006D0066
:101A40006F00200042006F006100720064002000FF
:101A5000280043002900200032003000300034000C
:0A1A6000C419C419E419E8191C1A8E
:061A6A002A0EF66E080EC4
:101A7000F76E000EF86E00010900F550B46F090012
:101A8000F550B56F03E1B46701D03DD00900F550C2
:101A9000AF6F0900F550B06F0900F550B16F090044
:101AA0000900F550E96E0900F550EA6E09000900D9
:101AB0000900F550B26F0900F550B36F0900090035
:101AC000F6CFB6F0F7CFB7F0F8CFB8F0AFC0F6FF6B
:101AD000B0C0F7FFB1C0F8FF0001B25302E1B35349
:101AE00007E00900F550EE6EB207F8E2B307F9D748
:101AF000B6C0F6FFB7C0F7FFB8C0F8FF0001B407E3
:081B0000000EB55BBFD7120017
:081B0800DACFE4FFE2CFDAFFBF
:101B1000E6528150100B06E18150200B03E18384D3
:101B2000838602D083948396F290E552E5CFDAFF64
:101B3000110006D8F28E16D82DEC04F0FCD7120056
:101B40000F0EC11292829284140E6F6E0001C16B4F
:101B50000001C26B0001C36B1CEC04F0F286F28042
:101B6000F18012008EEC0BF06FBE02D0AFEC0BF0E8
:021B7000120061
:0E1B7200D9CFE6FFDACFE6FFE1CFD9FFE2CF11
:101B8000DAFF3F0EC716C66AFD0EDB50C612FB0E0B
:101B9000DB50C712FC0EDB50030A09E0010A04E027
:101BA000020A06E1C78C04D0C78CC68801D0C6885B
:101BB000FD0EDB50050A03E0010A03E1928A9382DD
:101BC00001D093929380949EC68AE552E5CFDAFFC6
:061BD000E7CFD9FF12006F
:0A1BD600036A026A100EE76ED89051
:101BE00006360736023603360B50025C0C5003589B
:101BF00005E30B50025E0C50035A062AE72EF0D77D
:021C00001200D0
:0E1C020013EE00F023EE00F0F86A0F9C35ECB4
:0E1C10000DF01BEC0EF099EC0DF0FBD712005E
:021C1E0000EED6
:0C1C200000F00F0EEE6AEA62FDD7120021
:041C2C00C96AC7A01A
:061C3000FED7C9501200AE
:021C360012009A
:021C38000000AA
:00000001FF
